{
  "_format": "hh-sol-artifact-1",
  "contractName": "Bank",
  "sourceName": "contracts/Bank.sol",
  "abi": [
    {
      "inputs": [],
      "name": "deposit",
      "outputs": [],
      "stateMutability": "payable",
      "type": "function"
    },
    {
      "inputs": [],
      "name": "getBalance",
      "outputs": [
        {
          "internalType": "uint256",
          "name": "",
          "type": "uint256"
        }
      ],
      "stateMutability": "view",
      "type": "function"
    },
    {
      "inputs": [
        {
          "internalType": "uint256",
          "name": "_amount",
          "type": "uint256"
        }
      ],
      "name": "loan",
      "outputs": [],
      "stateMutability": "nonpayable",
      "type": "function"
    },
    {
      "inputs": [
        {
          "internalType": "uint256",
          "name": "_amount",
          "type": "uint256"
        }
      ],
      "name": "withdraw",
      "outputs": [],
      "stateMutability": "nonpayable",
      "type": "function"
    }
  ],
  "bytecode": "0x608060405234801561001057600080fd5b506107d1806100206000396000f3fe60806040526004361061003f5760003560e01c806312065fe0146100445780632e1a7d4d1461006f578063365a530614610098578063d0e30db0146100c1575b600080fd5b34801561005057600080fd5b506100596100cb565b604051610066919061062a565b60405180910390f35b34801561007b57600080fd5b5061009660048036038101906100919190610457565b6100d3565b005b3480156100a457600080fd5b506100bf60048036038101906100ba9190610457565b610259565b005b6100c96103eb565b005b600047905090565b806000803373ffffffffffffffffffffffffffffffffffffffff1673ffffffffffffffffffffffffffffffffffffffff168152602001908152602001600020541015610154576040517f08c379a000000000000000000000000000000000000000000000000000000000815260040161014b906105ca565b60405180910390fd5b806000803373ffffffffffffffffffffffffffffffffffffffff1673ffffffffffffffffffffffffffffffffffffffff16815260200190815260200160002060008282546101a291906106e8565b9250508190555060003373ffffffffffffffffffffffffffffffffffffffff16826040516101cf906105b5565b60006040518083038185875af1925050503d806000811461020c576040519150601f19603f3d011682016040523d82523d6000602084013e610211565b606091505b5050905080610255576040517f08c379a000000000000000000000000000000000000000000000000000000000815260040161024c9061060a565b60405180910390fd5b5050565b60058161026691906106b7565b6000803373ffffffffffffffffffffffffffffffffffffffff1673ffffffffffffffffffffffffffffffffffffffff1681526020019081526020016000205410156102e6576040517f08c379a00000000000000000000000000000000000000000000000000000000081526004016102dd906105ea565b60405180910390fd5b806000803373ffffffffffffffffffffffffffffffffffffffff1673ffffffffffffffffffffffffffffffffffffffff168152602001908152602001600020600082825461033491906106e8565b9250508190555060003373ffffffffffffffffffffffffffffffffffffffff1682604051610361906105b5565b60006040518083038185875af1925050503d806000811461039e576040519150601f19603f3d011682016040523d82523d6000602084013e6103a3565b606091505b50509050806103e7576040517f08c379a00000000000000000000000000000000000000000000000000000000081526004016103de9061060a565b60405180910390fd5b5050565b346000803373ffffffffffffffffffffffffffffffffffffffff1673ffffffffffffffffffffffffffffffffffffffff16815260200190815260200160002060008282546104399190610661565b92505081905550565b60008135905061045181610784565b92915050565b60006020828403121561046957600080fd5b600061047784828501610442565b91505092915050565b600061048d601283610650565b91507f4e6f7420656e6f7567682062616c616e636500000000000000000000000000006000830152602082019050919050565b60006104cd603083610650565b91507f4e6f7420656e6f7567682062616c616e636520746f206765742061206c6f616e60008301527f20666f72207468617420616d6f756e74000000000000000000000000000000006020830152604082019050919050565b6000610533601283610650565b91507f4661696c656420746f20636f6d706c65746500000000000000000000000000006000830152602082019050919050565b6000610573600483610645565b91507f73656e74000000000000000000000000000000000000000000000000000000006000830152600482019050919050565b6105af8161071c565b82525050565b60006105c082610566565b9150819050919050565b600060208201905081810360008301526105e381610480565b9050919050565b60006020820190508181036000830152610603816104c0565b9050919050565b6000602082019050818103600083015261062381610526565b9050919050565b600060208201905061063f60008301846105a6565b92915050565b600081905092915050565b600082825260208201905092915050565b600061066c8261071c565b91506106778361071c565b9250827fffffffffffffffffffffffffffffffffffffffffffffffffffffffffffffffff038211156106ac576106ab610726565b5b828201905092915050565b60006106c28261071c565b91506106cd8361071c565b9250826106dd576106dc610755565b5b828204905092915050565b60006106f38261071c565b91506106fe8361071c565b92508282101561071157610710610726565b5b828203905092915050565b6000819050919050565b7f4e487b7100000000000000000000000000000000000000000000000000000000600052601160045260246000fd5b7f4e487b7100000000000000000000000000000000000000000000000000000000600052601260045260246000fd5b61078d8161071c565b811461079857600080fd5b5056fea26469706673582212200b162fee9981e9b0b57d7074f0ee52d63b8bda65909f8dc4caf05945e5e4bb2d64736f6c63430008000033",
  "linkReferences": {},
  "deployedLinkReferences": {}
}