{
  "_format": "hh-sol-artifact-1",
  "contractName": "Bank",
  "sourceName": "contracts/Bank.sol",
  "abi": [
    {
      "inputs": [],
      "name": "deposit",
      "outputs": [],
      "stateMutability": "payable",
      "type": "function"
    },
    {
      "inputs": [],
      "name": "getBalance",
      "outputs": [
        {
          "internalType": "uint256",
          "name": "",
          "type": "uint256"
        }
      ],
      "stateMutability": "view",
      "type": "function"
    },
    {
      "inputs": [
        {
          "internalType": "uint256",
          "name": "_amount",
          "type": "uint256"
        }
      ],
      "name": "withdraw",
      "outputs": [],
      "stateMutability": "nonpayable",
      "type": "function"
    }
  ],
  "bytecode": "0x608060405234801561001057600080fd5b50610525806100206000396000f3fe6080604052600436106100345760003560e01c806312065fe0146100395780632e1a7d4d14610064578063d0e30db01461008d575b600080fd5b34801561004557600080fd5b5061004e610097565b60405161005b91906103de565b60405180910390f35b34801561007057600080fd5b5061008b60048036038101906100869190610291565b61009f565b005b610095610225565b005b600047905090565b806000803373ffffffffffffffffffffffffffffffffffffffff1673ffffffffffffffffffffffffffffffffffffffff168152602001908152602001600020541015610120576040517f08c379a00000000000000000000000000000000000000000000000000000000081526004016101179061039e565b60405180910390fd5b806000803373ffffffffffffffffffffffffffffffffffffffff1673ffffffffffffffffffffffffffffffffffffffff168152602001908152602001600020600082825461016e919061046b565b9250508190555060003373ffffffffffffffffffffffffffffffffffffffff168260405161019b90610389565b60006040518083038185875af1925050503d80600081146101d8576040519150601f19603f3d011682016040523d82523d6000602084013e6101dd565b606091505b5050905080610221576040517f08c379a0000000000000000000000000000000000000000000000000000000008152600401610218906103be565b60405180910390fd5b5050565b346000803373ffffffffffffffffffffffffffffffffffffffff1673ffffffffffffffffffffffffffffffffffffffff16815260200190815260200160002060008282546102739190610415565b92505081905550565b60008135905061028b816104d8565b92915050565b6000602082840312156102a357600080fd5b60006102b18482850161027c565b91505092915050565b60006102c7601283610404565b91507f4e6f7420656e6f7567682062616c616e636500000000000000000000000000006000830152602082019050919050565b6000610307601283610404565b91507f4661696c656420746f20636f6d706c65746500000000000000000000000000006000830152602082019050919050565b60006103476004836103f9565b91507f73656e74000000000000000000000000000000000000000000000000000000006000830152600482019050919050565b6103838161049f565b82525050565b60006103948261033a565b9150819050919050565b600060208201905081810360008301526103b7816102ba565b9050919050565b600060208201905081810360008301526103d7816102fa565b9050919050565b60006020820190506103f3600083018461037a565b92915050565b600081905092915050565b600082825260208201905092915050565b60006104208261049f565b915061042b8361049f565b9250827fffffffffffffffffffffffffffffffffffffffffffffffffffffffffffffffff038211156104605761045f6104a9565b5b828201905092915050565b60006104768261049f565b91506104818361049f565b925082821015610494576104936104a9565b5b828203905092915050565b6000819050919050565b7f4e487b7100000000000000000000000000000000000000000000000000000000600052601160045260246000fd5b6104e18161049f565b81146104ec57600080fd5b5056fea2646970667358221220507c908d7c0621a18e0b92ba11ac2ad6265827ecfa0c20e32c56fef61ff64d4764736f6c63430008000033",
  "linkReferences": {},
  "deployedLinkReferences": {}
}