{
  "_format": "hh-sol-artifact-1",
  "contractName": "Bank",
  "sourceName": "contracts/Bank.sol",
  "abi": [
    {
      "inputs": [],
      "name": "deposit",
      "outputs": [],
      "stateMutability": "payable",
      "type": "function"
    },
    {
      "inputs": [],
      "name": "getBalance",
      "outputs": [
        {
          "internalType": "uint256",
          "name": "",
          "type": "uint256"
        }
      ],
      "stateMutability": "view",
      "type": "function"
    },
    {
      "inputs": [
        {
          "internalType": "uint256",
          "name": "_amount",
          "type": "uint256"
        }
      ],
      "name": "loan",
      "outputs": [],
      "stateMutability": "nonpayable",
      "type": "function"
    },
    {
      "inputs": [
        {
          "internalType": "uint256",
          "name": "_amount",
          "type": "uint256"
        }
      ],
      "name": "withdraw",
      "outputs": [],
      "stateMutability": "nonpayable",
      "type": "function"
    }
  ],
  "bytecode": "0x608060405234801561001057600080fd5b5061077c806100206000396000f3fe60806040526004361061003f5760003560e01c806312065fe0146100445780632e1a7d4d1461006f578063365a530614610098578063d0e30db0146100c1575b600080fd5b34801561005057600080fd5b506100596100cb565b60405161006691906105d5565b60405180910390f35b34801561007b57600080fd5b5061009660048036038101906100919190610402565b6100d3565b005b3480156100a457600080fd5b506100bf60048036038101906100ba9190610402565b610259565b005b6100c9610396565b005b600047905090565b806000803373ffffffffffffffffffffffffffffffffffffffff1673ffffffffffffffffffffffffffffffffffffffff168152602001908152602001600020541015610154576040517f08c379a000000000000000000000000000000000000000000000000000000000815260040161014b90610575565b60405180910390fd5b806000803373ffffffffffffffffffffffffffffffffffffffff1673ffffffffffffffffffffffffffffffffffffffff16815260200190815260200160002060008282546101a29190610693565b9250508190555060003373ffffffffffffffffffffffffffffffffffffffff16826040516101cf90610560565b60006040518083038185875af1925050503d806000811461020c576040519150601f19603f3d011682016040523d82523d6000602084013e610211565b606091505b5050905080610255576040517f08c379a000000000000000000000000000000000000000000000000000000000815260040161024c906105b5565b60405180910390fd5b5050565b6005816102669190610662565b6000803373ffffffffffffffffffffffffffffffffffffffff1673ffffffffffffffffffffffffffffffffffffffff1681526020019081526020016000205410156102e6576040517f08c379a00000000000000000000000000000000000000000000000000000000081526004016102dd90610595565b60405180910390fd5b60003373ffffffffffffffffffffffffffffffffffffffff168260405161030c90610560565b60006040518083038185875af1925050503d8060008114610349576040519150601f19603f3d011682016040523d82523d6000602084013e61034e565b606091505b5050905080610392576040517f08c379a0000000000000000000000000000000000000000000000000000000008152600401610389906105b5565b60405180910390fd5b5050565b346000803373ffffffffffffffffffffffffffffffffffffffff1673ffffffffffffffffffffffffffffffffffffffff16815260200190815260200160002060008282546103e4919061060c565b92505081905550565b6000813590506103fc8161072f565b92915050565b60006020828403121561041457600080fd5b6000610422848285016103ed565b91505092915050565b60006104386012836105fb565b91507f4e6f7420656e6f7567682062616c616e636500000000000000000000000000006000830152602082019050919050565b60006104786030836105fb565b91507f4e6f7420656e6f7567682062616c616e636520746f206765742061206c6f616e60008301527f20666f72207468617420616d6f756e74000000000000000000000000000000006020830152604082019050919050565b60006104de6012836105fb565b91507f4661696c656420746f20636f6d706c65746500000000000000000000000000006000830152602082019050919050565b600061051e6004836105f0565b91507f73656e74000000000000000000000000000000000000000000000000000000006000830152600482019050919050565b61055a816106c7565b82525050565b600061056b82610511565b9150819050919050565b6000602082019050818103600083015261058e8161042b565b9050919050565b600060208201905081810360008301526105ae8161046b565b9050919050565b600060208201905081810360008301526105ce816104d1565b9050919050565b60006020820190506105ea6000830184610551565b92915050565b600081905092915050565b600082825260208201905092915050565b6000610617826106c7565b9150610622836106c7565b9250827fffffffffffffffffffffffffffffffffffffffffffffffffffffffffffffffff03821115610657576106566106d1565b5b828201905092915050565b600061066d826106c7565b9150610678836106c7565b92508261068857610687610700565b5b828204905092915050565b600061069e826106c7565b91506106a9836106c7565b9250828210156106bc576106bb6106d1565b5b828203905092915050565b6000819050919050565b7f4e487b7100000000000000000000000000000000000000000000000000000000600052601160045260246000fd5b7f4e487b7100000000000000000000000000000000000000000000000000000000600052601260045260246000fd5b610738816106c7565b811461074357600080fd5b5056fea264697066735822122002727fbd4a23da571d69795b6fb06ecd394f7e50e659658035e4738c9f418ec264736f6c63430008000033",
  "linkReferences": {},
  "deployedLinkReferences": {}
}